{
  "transactions": [
    {
      "hash": "0x61e83ad2e7b062a2bf83c5960fe4b669199a94f6f4daa85bc3121819f3feef78",
      "transactionType": "CALL",
      "contractName": null,
      "contractAddress": "0x3b4248eebc69a47c947785226927af612515eb2d",
      "function": "approve(address,uint256)",
      "arguments": [
        "0x69fA5e2493aF41abb178a1B46480ce760d87ed64",
        "100000000000000000000000000000"
      ],
      "transaction": {
        "from": "0xd9c5ee55812e5e1c6035b52887cce46915156e4e",
        "to": "0x3b4248eebc69a47c947785226927af612515eb2d",
        "gas": "0x11592",
        "value": "0x0",
        "input": "0x095ea7b300000000000000000000000069fa5e2493af41abb178a1b46480ce760d87ed640000000000000000000000000000000000000001431e0fae6d7217caa0000000",
        "nonce": "0x14",
        "chainId": "0x2105"
      },
      "additionalContracts": [],
      "isFixedGasLimit": false
    },
    {
      "hash": "0x4384141dda77acad146220bc31216b9575506b18c63949400753a10842027b48",
      "transactionType": "CALL",
      "contractName": null,
      "contractAddress": "0x69fa5e2493af41abb178a1b46480ce760d87ed64",
      "function": "createVestingSchedule(address,uint256,uint256,uint256,uint256,bool)",
      "arguments": [
        "0x25eF04fcCe2F6555B204a28fE1cBb79F7D12279c",
        "1741424721",
        "23328000",
        "62208000",
        "266666666000000000000000000",
        "false"
      ],
      "transaction": {
        "from": "0xd9c5ee55812e5e1c6035b52887cce46915156e4e",
        "to": "0x69fa5e2493af41abb178a1b46480ce760d87ed64",
        "gas": "0x74a5e",
        "value": "0x0",
        "input": "0xaaad932100000000000000000000000025ef04fcce2f6555b204a28fe1cbb79f7d12279c0000000000000000000000000000000000000000000000000000000067cc0851000000000000000000000000000000000000000000000000000000000163f5000000000000000000000000000000000000000000000000000000000003b53800000000000000000000000000000000000000000000dc94dcee2a530ff06800000000000000000000000000000000000000000000000000000000000000000000",
        "nonce": "0x15",
        "chainId": "0x2105"
      },
      "additionalContracts": [],
      "isFixedGasLimit": false
    },
    {
      "hash": "0x02520311aeffffe7bb8dadd56c4ffea32f57472d4906a17fc30235eb4593159c",
      "transactionType": "CALL",
      "contractName": null,
      "contractAddress": "0x69fa5e2493af41abb178a1b46480ce760d87ed64",
      "function": "createVestingSchedule(address,uint256,uint256,uint256,uint256,bool)",
      "arguments": [
        "0xE5261f469bAc513C0a0575A3b686847F48Bc6687",
        "1741424721",
        "7776000",
        "46656000",
        "1500000000000000000000000000",
        "false"
      ],
      "transaction": {
        "from": "0xd9c5ee55812e5e1c6035b52887cce46915156e4e",
        "to": "0x69fa5e2493af41abb178a1b46480ce760d87ed64",
        "gas": "0x63583",
        "value": "0x0",
        "input": "0xaaad9321000000000000000000000000e5261f469bac513c0a0575a3b686847f48bc66870000000000000000000000000000000000000000000000000000000067cc0851000000000000000000000000000000000000000000000000000000000076a7000000000000000000000000000000000000000000000000000000000002c7ea00000000000000000000000000000000000000000004d8c55aefb8c05b5c0000000000000000000000000000000000000000000000000000000000000000000000",
        "nonce": "0x16",
        "chainId": "0x2105"
      },
      "additionalContracts": [],
      "isFixedGasLimit": false
    }
  ],
  "receipts": [
    {
      "status": "0x1",
      "cumulativeGasUsed": "0x1fdae06",
      "logs": [
        {
          "address": "0x3b4248eebc69a47c947785226927af612515eb2d",
          "topics": [
            "0x8c5be1e5ebec7d5bd14f71427d1e84f3dd0314c0f7b2291e5b200ac8c7c3b925",
            "0x000000000000000000000000d9c5ee55812e5e1c6035b52887cce46915156e4e",
            "0x00000000000000000000000069fa5e2493af41abb178a1b46480ce760d87ed64"
          ],
          "data": "0x0000000000000000000000000000000000000001431e0fae6d7217caa0000000",
          "blockHash": "0xea79d3ae01547cd06b6490742b1951ab82b23e93f2a3107c1bcd9f7cf9ba00ca",
          "blockNumber": "0x1a0d5da",
          "blockTimestamp": "0x67cc0897",
          "transactionHash": "0x61e83ad2e7b062a2bf83c5960fe4b669199a94f6f4daa85bc3121819f3feef78",
          "transactionIndex": "0x73",
          "logIndex": "0x106",
          "removed": false
        }
      ],
      "logsBloom": "0x00000000000000000000000000000000000000008000000000000000000400000000000000100000000000000000000000000000000000000000000000200040000000000000000000000000000000000000000000000000000000000000000000000000000000000000000000000000000000000000000000000000000000000000000000000000000000000000000000000000000000000000000000000000020000000088000000000000000000000000000000000000000000000000000000000000000000000000000000000000000000000000000080000000000000000010000000000000000004000000000000000000000000000000008000000000",
      "type": "0x2",
      "transactionHash": "0x61e83ad2e7b062a2bf83c5960fe4b669199a94f6f4daa85bc3121819f3feef78",
      "transactionIndex": "0x73",
      "blockHash": "0xea79d3ae01547cd06b6490742b1951ab82b23e93f2a3107c1bcd9f7cf9ba00ca",
      "blockNumber": "0x1a0d5da",
      "gasUsed": "0xc8f5",
      "effectiveGasPrice": "0x214221",
      "from": "0xd9c5ee55812e5e1c6035b52887cce46915156e4e",
      "to": "0x3b4248eebc69a47c947785226927af612515eb2d",
      "contractAddress": null,
      "l1BaseFeeScalar": "0x8dd",
      "l1BlobBaseFee": "0x1",
      "l1BlobBaseFeeScalar": "0x101c12",
      "l1Fee": "0x88b4c427",
      "l1GasPrice": "0x25a7eb74",
      "l1GasUsed": "0x640"
    },
    {
      "status": "0x1",
      "cumulativeGasUsed": "0x202f53e",
      "logs": [
        {
          "address": "0x3b4248eebc69a47c947785226927af612515eb2d",
          "topics": [
            "0xddf252ad1be2c89b69c2b068fc378daa952ba7f163c4a11628f55a4df523b3ef",
            "0x000000000000000000000000d9c5ee55812e5e1c6035b52887cce46915156e4e",
            "0x00000000000000000000000069fa5e2493af41abb178a1b46480ce760d87ed64"
          ],
          "data": "0x000000000000000000000000000000000000000000dc94dcee2a530ff0680000",
          "blockHash": "0xea79d3ae01547cd06b6490742b1951ab82b23e93f2a3107c1bcd9f7cf9ba00ca",
          "blockNumber": "0x1a0d5da",
          "blockTimestamp": "0x67cc0897",
          "transactionHash": "0x4384141dda77acad146220bc31216b9575506b18c63949400753a10842027b48",
          "transactionIndex": "0x74",
          "logIndex": "0x107",
          "removed": false
        },
        {
          "address": "0x69fa5e2493af41abb178a1b46480ce760d87ed64",
          "topics": [
            "0xc5ca40c4bbf954ed1b6d59d28d9e567488e3ade1393fe2584bda522002d1c4e8",
            "0xf3dea17dbbcc98ed117fd747b486750cf04ee7ae909c6d22c25d80d7730fd17d",
            "0x00000000000000000000000025ef04fcce2f6555b204a28fe1cbb79f7d12279c"
          ],
          "data": "0x0000000000000000000000000000000000000000000000000000000067cc0851000000000000000000000000000000000000000000000000000000000163f5000000000000000000000000000000000000000000000000000000000003b53800000000000000000000000000000000000000000000dc94dcee2a530ff06800000000000000000000000000000000000000000000000000000000000000000000",
          "blockHash": "0xea79d3ae01547cd06b6490742b1951ab82b23e93f2a3107c1bcd9f7cf9ba00ca",
          "blockNumber": "0x1a0d5da",
          "blockTimestamp": "0x67cc0897",
          "transactionHash": "0x4384141dda77acad146220bc31216b9575506b18c63949400753a10842027b48",
          "transactionIndex": "0x74",
          "logIndex": "0x108",
          "removed": false
        }
      ],
      "logsBloom": "0x02000000000000006000000000000002000000008000000400000000000400000000000000180000000000000000000000000000000000040000000000000040000000000000000000000008000000000000000000000000000000000000000000000000000000000000000000000000000000000000000000000010000000000000000000000000000000000000000000000000000000000000020000000000000000000088000000000000000000000000000000000000000000000000000000008002000000000000000000000140000000000000000084000000000000000000000000000000000004000000000000000000000000000000008000000000",
      "type": "0x2",
      "transactionHash": "0x4384141dda77acad146220bc31216b9575506b18c63949400753a10842027b48",
      "transactionIndex": "0x74",
      "blockHash": "0xea79d3ae01547cd06b6490742b1951ab82b23e93f2a3107c1bcd9f7cf9ba00ca",
      "blockNumber": "0x1a0d5da",
      "gasUsed": "0x54738",
      "effectiveGasPrice": "0x214221",
      "from": "0xd9c5ee55812e5e1c6035b52887cce46915156e4e",
      "to": "0x69fa5e2493af41abb178a1b46480ce760d87ed64",
      "contractAddress": null,
      "l1BaseFeeScalar": "0x8dd",
      "l1BlobBaseFee": "0x1",
      "l1BlobBaseFeeScalar": "0x101c12",
      "l1Fee": "0xa70fc35f",
      "l1GasPrice": "0x25a7eb74",
      "l1GasUsed": "0x7a3"
    },
    {
      "status": "0x1",
      "cumulativeGasUsed": "0x2077406",
      "logs": [
        {
          "address": "0x3b4248eebc69a47c947785226927af612515eb2d",
          "topics": [
            "0xddf252ad1be2c89b69c2b068fc378daa952ba7f163c4a11628f55a4df523b3ef",
            "0x000000000000000000000000d9c5ee55812e5e1c6035b52887cce46915156e4e",
            "0x00000000000000000000000069fa5e2493af41abb178a1b46480ce760d87ed64"
          ],
          "data": "0x000000000000000000000000000000000000000004d8c55aefb8c05b5c000000",
          "blockHash": "0xea79d3ae01547cd06b6490742b1951ab82b23e93f2a3107c1bcd9f7cf9ba00ca",
          "blockNumber": "0x1a0d5da",
          "blockTimestamp": "0x67cc0897",
          "transactionHash": "0x02520311aeffffe7bb8dadd56c4ffea32f57472d4906a17fc30235eb4593159c",
          "transactionIndex": "0x75",
          "logIndex": "0x109",
          "removed": false
        },
        {
          "address": "0x69fa5e2493af41abb178a1b46480ce760d87ed64",
          "topics": [
            "0xc5ca40c4bbf954ed1b6d59d28d9e567488e3ade1393fe2584bda522002d1c4e8",
            "0xaec3c560325c4256eeb80a31f38a7465660d91c20ee430749c8eacd982734c35",
            "0x000000000000000000000000e5261f469bac513c0a0575a3b686847f48bc6687"
          ],
          "data": "0x0000000000000000000000000000000000000000000000000000000067cc0851000000000000000000000000000000000000000000000000000000000076a7000000000000000000000000000000000000000000000000000000000002c7ea00000000000000000000000000000000000000000004d8c55aefb8c05b5c0000000000000000000000000000000000000000000000000000000000000000000000",
          "blockHash": "0xea79d3ae01547cd06b6490742b1951ab82b23e93f2a3107c1bcd9f7cf9ba00ca",
          "blockNumber": "0x1a0d5da",
          "blockTimestamp": "0x67cc0897",
          "transactionHash": "0x02520311aeffffe7bb8dadd56c4ffea32f57472d4906a17fc30235eb4593159c",
          "transactionIndex": "0x75",
          "logIndex": "0x10a",
          "removed": false
        }
      ],
      "logsBloom": "0x000000000000000020000008000000000000000080000000000000000004000000000000001000000000000000000000000000000000000400000000000000400000000000000000000002080000000000000000000000000000000000000000000000000000000000000000000000000000000000000000000040100000000000000000000000000000000000000000000000000000000000000000000000000000000002880000000000000000000000000000000000000000000000000000000080020000000000000000000001400000040000000000a4000000000000000000000000000000000004000000000000000000000000000000008000000000",
      "type": "0x2",
      "transactionHash": "0x02520311aeffffe7bb8dadd56c4ffea32f57472d4906a17fc30235eb4593159c",
      "transactionIndex": "0x75",
      "blockHash": "0xea79d3ae01547cd06b6490742b1951ab82b23e93f2a3107c1bcd9f7cf9ba00ca",
      "blockNumber": "0x1a0d5da",
      "gasUsed": "0x47ec8",
      "effectiveGasPrice": "0x214221",
      "from": "0xd9c5ee55812e5e1c6035b52887cce46915156e4e",
      "to": "0x69fa5e2493af41abb178a1b46480ce760d87ed64",
      "contractAddress": null,
      "l1BaseFeeScalar": "0x8dd",
      "l1BlobBaseFee": "0x1",
      "l1BlobBaseFeeScalar": "0x101c12",
      "l1Fee": "0xa5eb03e5",
      "l1GasPrice": "0x25a7eb74",
      "l1GasUsed": "0x795"
    }
  ],
  "libraries": [],
  "pending": [],
  "returns": {
    "1": {
      "internal_type": "contract QuintesVesting",
      "value": "0x69fA5e2493aF41abb178a1B46480ce760d87ed64"
    },
    "0": {
      "internal_type": "contract Quintes",
      "value": "0x3b4248eEBc69a47C947785226927af612515eb2d"
    }
  },
  "timestamp": 1741424798,
  "chain": 8453,
  "commit": "c37d231"
}